:100000000C9446000C9450000C9450000C9450003A
:100010000C9450000C9450000C9450000C94500020
:100020000C9450000C9450000C9450000C94500010
:100030000C9450000C9450000C9450000C94500000
:100040000C9450000C9450000C9450000C945000F0
:100050000C9450000C9450000C9450000C945000E0
:100060000C9450000C9450000C9450000C945000D0
:100070000C9450000C9450000C9450000C945000C0
:100080000C9450000C9450000C94500011241FBE8E
:10009000CFEFD0E4DEBFCDBF0E9452000C94B5007C
:1000A0000C940000CF93DF9300D0CDB7DEB781E290
:1000B00090E0FC01108282E290E02FEFFC012083AF
:1000C00084E290E02FEFFC01208385E290E0FC01C8
:1000D00010821A82198288E290E0FC018081898373
:1000E00080E290E0FC0180818A838A81882319F470
:1000F00084E0898334C08A81813049F08A818230EA
:1001000031F08A81843019F08A81883019F483E0D3
:10011000898325C08A81833079F08A81853061F0B6
:100120008A81863049F08A81893031F08A81803A2B
:1001300019F08A81803C19F482E0898310C08A8199
:10014000873049F08A818E3031F08A818D3019F004
:100150008A818B3019F481E0898301C0198288E299
:0E01600090E02981FC012083B6CFF894FFCFF8
:00000001FF
